{
  "_format": "hh-sol-artifact-1",
  "contractName": "Raffle",
  "sourceName": "contracts/Raffle.sol",
  "abi": [
    {
      "inputs": [
        {
          "internalType": "address",
          "name": "vrfCoordinatorV2",
          "type": "address"
        },
        {
          "internalType": "uint256",
          "name": "entranceFee",
          "type": "uint256"
        },
        {
          "internalType": "bytes32",
          "name": "gasLane",
          "type": "bytes32"
        },
        {
          "internalType": "uint64",
          "name": "subscriptionId",
          "type": "uint64"
        },
        {
          "internalType": "uint32",
          "name": "callbackGasLimit",
          "type": "uint32"
        },
        {
          "internalType": "uint256",
          "name": "interval",
          "type": "uint256"
        }
      ],
      "stateMutability": "nonpayable",
      "type": "constructor"
    },
    {
      "inputs": [
        {
          "internalType": "address",
          "name": "have",
          "type": "address"
        },
        {
          "internalType": "address",
          "name": "want",
          "type": "address"
        }
      ],
      "name": "OnlyCoordinatorCanFulfill",
      "type": "error"
    },
    {
      "inputs": [
        {
          "internalType": "uint256",
          "name": "balance",
          "type": "uint256"
        },
        {
          "internalType": "uint256",
          "name": "numPlayers",
          "type": "uint256"
        },
        {
          "internalType": "uint256",
          "name": "raffleState",
          "type": "uint256"
        }
      ],
      "name": "Raffle_UpkeepNotNeeded",
      "type": "error"
    },
    {
      "inputs": [],
      "name": "Raffle__NotEnoughETH",
      "type": "error"
    },
    {
      "inputs": [],
      "name": "Raffle__NotOpen",
      "type": "error"
    },
    {
      "inputs": [],
      "name": "Raffle__TransferFailed",
      "type": "error"
    },
    {
      "anonymous": false,
      "inputs": [
        {
          "indexed": true,
          "internalType": "address",
          "name": "player",
          "type": "address"
        }
      ],
      "name": "RaffleEnter",
      "type": "event"
    },
    {
      "anonymous": false,
      "inputs": [
        {
          "indexed": false,
          "internalType": "uint256",
          "name": "requestId",
          "type": "uint256"
        }
      ],
      "name": "RequestedRaffleWinner",
      "type": "event"
    },
    {
      "anonymous": false,
      "inputs": [
        {
          "indexed": true,
          "internalType": "address",
          "name": "winner",
          "type": "address"
        }
      ],
      "name": "WinnerPicked",
      "type": "event"
    },
    {
      "inputs": [
        {
          "internalType": "bytes",
          "name": "",
          "type": "bytes"
        }
      ],
      "name": "checkUpkeep",
      "outputs": [
        {
          "internalType": "bool",
          "name": "upkeepNeeded",
          "type": "bool"
        },
        {
          "internalType": "bytes",
          "name": "",
          "type": "bytes"
        }
      ],
      "stateMutability": "nonpayable",
      "type": "function"
    },
    {
      "inputs": [],
      "name": "enterRaffle",
      "outputs": [],
      "stateMutability": "payable",
      "type": "function"
    },
    {
      "inputs": [],
      "name": "getEntranceFee",
      "outputs": [
        {
          "internalType": "uint256",
          "name": "",
          "type": "uint256"
        }
      ],
      "stateMutability": "view",
      "type": "function"
    },
    {
      "inputs": [],
      "name": "getLatestTimeStamp",
      "outputs": [
        {
          "internalType": "uint256",
          "name": "",
          "type": "uint256"
        }
      ],
      "stateMutability": "view",
      "type": "function"
    },
    {
      "inputs": [],
      "name": "getNumWords",
      "outputs": [
        {
          "internalType": "uint256",
          "name": "",
          "type": "uint256"
        }
      ],
      "stateMutability": "pure",
      "type": "function"
    },
    {
      "inputs": [],
      "name": "getNumberOfPlayers",
      "outputs": [
        {
          "internalType": "uint256",
          "name": "",
          "type": "uint256"
        }
      ],
      "stateMutability": "view",
      "type": "function"
    },
    {
      "inputs": [
        {
          "internalType": "uint256",
          "name": "index",
          "type": "uint256"
        }
      ],
      "name": "getPlayer",
      "outputs": [
        {
          "internalType": "address",
          "name": "",
          "type": "address"
        }
      ],
      "stateMutability": "view",
      "type": "function"
    },
    {
      "inputs": [],
      "name": "getRaffleState",
      "outputs": [
        {
          "internalType": "enum Raffle.RaffleState",
          "name": "",
          "type": "uint8"
        }
      ],
      "stateMutability": "view",
      "type": "function"
    },
    {
      "inputs": [],
      "name": "getRecentWinner",
      "outputs": [
        {
          "internalType": "address",
          "name": "",
          "type": "address"
        }
      ],
      "stateMutability": "view",
      "type": "function"
    },
    {
      "inputs": [],
      "name": "getRequestConfirmations",
      "outputs": [
        {
          "internalType": "uint256",
          "name": "",
          "type": "uint256"
        }
      ],
      "stateMutability": "pure",
      "type": "function"
    },
    {
      "inputs": [
        {
          "internalType": "bytes",
          "name": "",
          "type": "bytes"
        }
      ],
      "name": "performUpkeep",
      "outputs": [],
      "stateMutability": "nonpayable",
      "type": "function"
    },
    {
      "inputs": [
        {
          "internalType": "uint256",
          "name": "requestId",
          "type": "uint256"
        },
        {
          "internalType": "uint256[]",
          "name": "randomWords",
          "type": "uint256[]"
        }
      ],
      "name": "rawFulfillRandomWords",
      "outputs": [],
      "stateMutability": "nonpayable",
      "type": "function"
    }
  ],
  "bytecode": "0x6101606040523480156200001257600080fd5b50604051620017ce380380620017ce8339818101604052810190620000389190620001ad565b858073ffffffffffffffffffffffffffffffffffffffff1660808173ffffffffffffffffffffffffffffffffffffffff1660601b81525050508460a081815250508573ffffffffffffffffffffffffffffffffffffffff1660c08173ffffffffffffffffffffffffffffffffffffffff1660601b815250508360e081815250508267ffffffffffffffff166101008167ffffffffffffffff1660c01b815250508163ffffffff166101208163ffffffff1660e01b815250506000600160146101000a81548160ff02191690836001811115620001195762000118620002b5565b5b0217905550426002819055508061014081815250505050505050506200036b565b6000815190506200014b81620002e9565b92915050565b600081519050620001628162000303565b92915050565b60008151905062000179816200031d565b92915050565b600081519050620001908162000337565b92915050565b600081519050620001a78162000351565b92915050565b60008060008060008060c08789031215620001cd57620001cc620002e4565b5b6000620001dd89828a016200013a565b9650506020620001f089828a0162000168565b95505060406200020389828a0162000151565b94505060606200021689828a0162000196565b93505060806200022989828a016200017f565b92505060a06200023c89828a0162000168565b9150509295509295509295565b6000620002568262000267565b9050919050565b6000819050919050565b600073ffffffffffffffffffffffffffffffffffffffff82169050919050565b6000819050919050565b600063ffffffff82169050919050565b600067ffffffffffffffff82169050919050565b7f4e487b7100000000000000000000000000000000000000000000000000000000600052602160045260246000fd5b600080fd5b620002f48162000249565b81146200030057600080fd5b50565b6200030e816200025d565b81146200031a57600080fd5b50565b620003288162000287565b81146200033457600080fd5b50565b620003428162000291565b81146200034e57600080fd5b50565b6200035c81620002a1565b81146200036857600080fd5b50565b60805160601c60a05160c05160601c60e0516101005160c01c6101205160e01c610140516113ee620003e060003960006107ba0152600061065f0152600061063c0152600061061b015260006105df0152600081816102b401526103b10152600081816102f1015261034501526113ee6000f3fe6080604052600436106100a75760003560e01c8063473f1ddc11610064578063473f1ddc1461018957806353a2c19a146101b45780635f1b0fd8146101df5780636e04ff0d1461020a578063e55ae4e814610248578063fd6673f514610285576100a7565b806309bc33a7146100ac578063115cbaf5146100d75780631fe543e3146101025780632cfcc5391461012b578063320229eb146101355780634585e33b14610160575b600080fd5b3480156100b857600080fd5b506100c16102b0565b6040516100ce9190610ff4565b60405180910390f35b3480156100e357600080fd5b506100ec6102d8565b6040516100f99190610fd9565b60405180910390f35b34801561010e57600080fd5b5061012960048036038101906101249190610dcd565b6102ef565b005b6101336103af565b005b34801561014157600080fd5b5061014a61051e565b6040516101579190610ff4565b60405180910390f35b34801561016c57600080fd5b5061018760048036038101906101829190610cdd565b610528565b005b34801561019557600080fd5b5061019e610731565b6040516101ab9190610f12565b60405180910390f35b3480156101c057600080fd5b506101c961075b565b6040516101d69190610ff4565b60405180910390f35b3480156101eb57600080fd5b506101f461076a565b6040516102019190610ff4565b60405180910390f35b34801561021657600080fd5b50610231600480360381019061022c9190610d2a565b610777565b60405161023f929190610f56565b60405180910390f35b34801561025457600080fd5b5061026f600480360381019061026a9190610d73565b610824565b60405161027c9190610f12565b60405180910390f35b34801561029157600080fd5b5061029a61086b565b6040516102a79190610ff4565b60405180910390f35b60007f0000000000000000000000000000000000000000000000000000000000000000905090565b6000600160149054906101000a900460ff16905090565b7f000000000000000000000000000000000000000000000000000000000000000073ffffffffffffffffffffffffffffffffffffffff163373ffffffffffffffffffffffffffffffffffffffff16146103a157337f00000000000000000000000000000000000000000000000000000000000000006040517f1cf993f4000000000000000000000000000000000000000000000000000000008152600401610398929190610f2d565b60405180910390fd5b6103ab8282610877565b5050565b7f0000000000000000000000000000000000000000000000000000000000000000341015610409576040517f9894879b00000000000000000000000000000000000000000000000000000000815260040160405180910390fd5b6000600181111561041d5761041c6112ce565b5b600160149054906101000a900460ff16600181111561043f5761043e6112ce565b5b14610476576040517f1425571c00000000000000000000000000000000000000000000000000000000815260040160405180910390fd5b6000339080600181540180825580915050600190039060005260206000200160009091909190916101000a81548173ffffffffffffffffffffffffffffffffffffffff021916908373ffffffffffffffffffffffffffffffffffffffff1602179055503373ffffffffffffffffffffffffffffffffffffffff167f0805e1d667bddb8a95f0f09880cf94f403fb596ce79928d9f29b74203ba284d460405160405180910390a2565b6000600254905090565b600061054260405180602001604052806000815250610777565b509050806105b15747600080549050600160149054906101000a900460ff166001811115610573576105726112ce565b5b6040517fe059521b0000000000000000000000000000000000000000000000000000000081526004016105a89392919061100f565b60405180910390fd5b60018060146101000a81548160ff021916908360018111156105d6576105d56112ce565b5b021790555060007f000000000000000000000000000000000000000000000000000000000000000073ffffffffffffffffffffffffffffffffffffffff16635d3b1d307f00000000000000000000000000000000000000000000000000000000000000007f000000000000000000000000000000000000000000000000000000000000000060037f000000000000000000000000000000000000000000000000000000000000000060016040518663ffffffff1660e01b81526004016106a0959493929190610f86565b602060405180830381600087803b1580156106ba57600080fd5b505af11580156106ce573d6000803e3d6000fd5b505050506040513d601f19601f820116820180604052508101906106f29190610da0565b90507fcd6e45c8998311cab7e9d4385596cac867e20a0587194b954fa3a731c93ce78b816040516107239190610ff4565b60405180910390a150505050565b6000600160009054906101000a900473ffffffffffffffffffffffffffffffffffffffff16905090565b6000600163ffffffff16905090565b6000600361ffff16905090565b600060606000600160149054906101000a900460ff16600181111561079f5761079e6112ce565b5b600060018111156107b3576107b26112ce565b5b14905060007f0000000000000000000000000000000000000000000000000000000000000000600254426107e791906110ef565b119050600080600080549050119050600080471190508380156108075750825b80156108105750815b80156108195750805b955050505050915091565b6000808281548110610839576108386112fd565b5b9060005260206000200160009054906101000a900473ffffffffffffffffffffffffffffffffffffffff169050919050565b60008080549050905090565b6000808054905082600081518110610892576108916112fd565b5b60200260200101516108a4919061123f565b905060008082815481106108bb576108ba6112fd565b5b9060005260206000200160009054906101000a900473ffffffffffffffffffffffffffffffffffffffff16905080600160006101000a81548173ffffffffffffffffffffffffffffffffffffffff021916908373ffffffffffffffffffffffffffffffffffffffff1602179055506000600160146101000a81548160ff0219169083600181111561094f5761094e6112ce565b5b0217905550600067ffffffffffffffff81111561096f5761096e61132c565b5b60405190808252806020026020018201604052801561099d5781602001602082028036833780820191505090505b50600090805190602001906109b3929190610aa8565b504260028190555060008173ffffffffffffffffffffffffffffffffffffffff16476040516109e190610efd565b60006040518083038185875af1925050503d8060008114610a1e576040519150601f19603f3d011682016040523d82523d6000602084013e610a23565b606091505b5050905080610a5e576040517fa1d04b3900000000000000000000000000000000000000000000000000000000815260040160405180910390fd5b8173ffffffffffffffffffffffffffffffffffffffff167f5b690ec4a06fe979403046eaeea5b3ce38524683c3001f662c8b5a829632f7df60405160405180910390a25050505050565b828054828255906000526020600020908101928215610b21579160200282015b82811115610b205782518260006101000a81548173ffffffffffffffffffffffffffffffffffffffff021916908373ffffffffffffffffffffffffffffffffffffffff16021790555091602001919060010190610ac8565b5b509050610b2e9190610b32565b5090565b5b80821115610b4b576000816000905550600101610b33565b5090565b6000610b62610b5d8461106b565b611046565b90508083825260208201905082856020860282011115610b8557610b84611365565b5b60005b85811015610bb55781610b9b8882610cb3565b845260208401935060208301925050600181019050610b88565b5050509392505050565b6000610bd2610bcd84611097565b611046565b905082815260208101848484011115610bee57610bed61136a565b5b610bf98482856111cc565b509392505050565b600082601f830112610c1657610c15611360565b5b8135610c26848260208601610b4f565b91505092915050565b60008083601f840112610c4557610c44611360565b5b8235905067ffffffffffffffff811115610c6257610c6161135b565b5b602083019150836001820283011115610c7e57610c7d611365565b5b9250929050565b600082601f830112610c9a57610c99611360565b5b8135610caa848260208601610bbf565b91505092915050565b600081359050610cc2816113a1565b92915050565b600081519050610cd7816113a1565b92915050565b60008060208385031215610cf457610cf3611374565b5b600083013567ffffffffffffffff811115610d1257610d1161136f565b5b610d1e85828601610c2f565b92509250509250929050565b600060208284031215610d4057610d3f611374565b5b600082013567ffffffffffffffff811115610d5e57610d5d61136f565b5b610d6a84828501610c85565b91505092915050565b600060208284031215610d8957610d88611374565b5b6000610d9784828501610cb3565b91505092915050565b600060208284031215610db657610db5611374565b5b6000610dc484828501610cc8565b91505092915050565b60008060408385031215610de457610de3611374565b5b6000610df285828601610cb3565b925050602083013567ffffffffffffffff811115610e1357610e1261136f565b5b610e1f85828601610c01565b9150509250929050565b610e3281611123565b82525050565b610e4181611135565b82525050565b610e5081611141565b82525050565b6000610e61826110c8565b610e6b81856110d3565b9350610e7b8185602086016111db565b610e8481611379565b840191505092915050565b610e98816111ba565b82525050565b6000610eab6000836110e4565b9150610eb68261138a565b600082019050919050565b610eca8161115e565b82525050565b610ed98161118c565b82525050565b610ee881611196565b82525050565b610ef7816111a6565b82525050565b6000610f0882610e9e565b9150819050919050565b6000602082019050610f276000830184610e29565b92915050565b6000604082019050610f426000830185610e29565b610f4f6020830184610e29565b9392505050565b6000604082019050610f6b6000830185610e38565b8181036020830152610f7d8184610e56565b90509392505050565b600060a082019050610f9b6000830188610e47565b610fa86020830187610eee565b610fb56040830186610ec1565b610fc26060830185610edf565b610fcf6080830184610edf565b9695505050505050565b6000602082019050610fee6000830184610e8f565b92915050565b60006020820190506110096000830184610ed0565b92915050565b60006060820190506110246000830186610ed0565b6110316020830185610ed0565b61103e6040830184610ed0565b949350505050565b6000611050611061565b905061105c828261120e565b919050565b6000604051905090565b600067ffffffffffffffff8211156110865761108561132c565b5b602082029050602081019050919050565b600067ffffffffffffffff8211156110b2576110b161132c565b5b6110bb82611379565b9050602081019050919050565b600081519050919050565b600082825260208201905092915050565b600081905092915050565b60006110fa8261118c565b91506111058361118c565b92508282101561111857611117611270565b5b828203905092915050565b600061112e8261116c565b9050919050565b60008115159050919050565b6000819050919050565b60008190506111598261138d565b919050565b600061ffff82169050919050565b600073ffffffffffffffffffffffffffffffffffffffff82169050919050565b6000819050919050565b600063ffffffff82169050919050565b600067ffffffffffffffff82169050919050565b60006111c58261114b565b9050919050565b82818337600083830152505050565b60005b838110156111f95780820151818401526020810190506111de565b83811115611208576000848401525b50505050565b61121782611379565b810181811067ffffffffffffffff821117156112365761123561132c565b5b80604052505050565b600061124a8261118c565b91506112558361118c565b9250826112655761126461129f565b5b828206905092915050565b7f4e487b7100000000000000000000000000000000000000000000000000000000600052601160045260246000fd5b7f4e487b7100000000000000000000000000000000000000000000000000000000600052601260045260246000fd5b7f4e487b7100000000000000000000000000000000000000000000000000000000600052602160045260246000fd5b7f4e487b7100000000000000000000000000000000000000000000000000000000600052603260045260246000fd5b7f4e487b7100000000000000000000000000000000000000000000000000000000600052604160045260246000fd5b600080fd5b600080fd5b600080fd5b600080fd5b600080fd5b600080fd5b6000601f19601f8301169050919050565b50565b6002811061139e5761139d6112ce565b5b50565b6113aa8161118c565b81146113b557600080fd5b5056fea264697066735822122050a62fb481638fd87f6fdec8e5f62416eee5da9c4c472b7f610f18a0d0bd0cef64736f6c63430008070033",
  "linkReferences": {},
  "deployedLinkReferences": {}
}